{
  "_format": "hh-sol-artifact-1",
  "contractName": "Staking",
  "sourceName": "contracts/Staking.sol",
  "abi": [
    {
      "inputs": [
        {
          "internalType": "address",
          "name": "_baseToken",
          "type": "address"
        },
        {
          "internalType": "address",
          "name": "_govToken",
          "type": "address"
        }
      ],
      "stateMutability": "nonpayable",
      "type": "constructor"
    },
    {
      "inputs": [],
      "name": "REWARD_PER_DAY",
      "outputs": [
        {
          "internalType": "uint256",
          "name": "",
          "type": "uint256"
        }
      ],
      "stateMutability": "view",
      "type": "function"
    },
    {
      "inputs": [],
      "name": "baseToken",
      "outputs": [
        {
          "internalType": "contract IERC20",
          "name": "",
          "type": "address"
        }
      ],
      "stateMutability": "view",
      "type": "function"
    },
    {
      "inputs": [],
      "name": "claimGovToken",
      "outputs": [],
      "stateMutability": "nonpayable",
      "type": "function"
    },
    {
      "inputs": [],
      "name": "govToken",
      "outputs": [
        {
          "internalType": "contract IGovToken",
          "name": "",
          "type": "address"
        }
      ],
      "stateMutability": "view",
      "type": "function"
    },
    {
      "inputs": [
        {
          "internalType": "uint256",
          "name": "amount",
          "type": "uint256"
        }
      ],
      "name": "stake",
      "outputs": [],
      "stateMutability": "nonpayable",
      "type": "function"
    },
    {
      "inputs": [
        {
          "internalType": "address",
          "name": "",
          "type": "address"
        }
      ],
      "name": "stakes",
      "outputs": [
        {
          "internalType": "uint256",
          "name": "amount",
          "type": "uint256"
        },
        {
          "internalType": "uint256",
          "name": "timestamp",
          "type": "uint256"
        },
        {
          "internalType": "uint256",
          "name": "rewardDebt",
          "type": "uint256"
        }
      ],
      "stateMutability": "view",
      "type": "function"
    },
    {
      "inputs": [],
      "name": "unstake",
      "outputs": [],
      "stateMutability": "nonpayable",
      "type": "function"
    }
  ],
  "bytecode": "0x608060405234801561001057600080fd5b50604051610cb4380380610cb48339818101604052810190610032919061011d565b816000806101000a81548173ffffffffffffffffffffffffffffffffffffffff021916908373ffffffffffffffffffffffffffffffffffffffff16021790555080600160006101000a81548173ffffffffffffffffffffffffffffffffffffffff021916908373ffffffffffffffffffffffffffffffffffffffff160217905550505061015d565b600080fd5b600073ffffffffffffffffffffffffffffffffffffffff82169050919050565b60006100ea826100bf565b9050919050565b6100fa816100df565b811461010557600080fd5b50565b600081519050610117816100f1565b92915050565b60008060408385031215610134576101336100ba565b5b600061014285828601610108565b925050602061015385828601610108565b9150509250929050565b610b488061016c6000396000f3fe608060405234801561001057600080fd5b506004361061007d5760003560e01c80632def66201161005b5780632def6620146100dc5780638141feb3146100e6578063a694fc3a14610104578063c55dae63146101205761007d565b806305268cff1461008257806316934fc4146100a05780632361e21b146100d2575b600080fd5b61008a61013e565b6040516100979190610691565b60405180910390f35b6100ba60048036038101906100b591906106ef565b610164565b6040516100c993929190610735565b60405180910390f35b6100da61018e565b005b6100e46102c5565b005b6100ee610453565b6040516100fb919061076c565b60405180910390f35b61011e600480360381019061011991906107b3565b61045f565b005b6101286105ee565b6040516101359190610801565b60405180910390f35b600160009054906101000a900473ffffffffffffffffffffffffffffffffffffffff1681565b60026020528060005260406000206000915090508060000154908060010154908060020154905083565b6000600260003373ffffffffffffffffffffffffffffffffffffffff1673ffffffffffffffffffffffffffffffffffffffff16815260200190815260200160002090506000816000015411156102c25760008160010154426101f0919061084b565b905060006201518082670de0b6b3a76400008560000154610211919061087f565b61021b919061087f565b61022591906108f0565b9050600160009054906101000a900473ffffffffffffffffffffffffffffffffffffffff1673ffffffffffffffffffffffffffffffffffffffff166340c10f1933836040518363ffffffff1660e01b8152600401610284929190610930565b600060405180830381600087803b15801561029e57600080fd5b505af11580156102b2573d6000803e3d6000fd5b5050505042836001018190555050505b50565b6102cd61018e565b6000600260003373ffffffffffffffffffffffffffffffffffffffff1673ffffffffffffffffffffffffffffffffffffffff16815260200190815260200160002060000154905060008111610357576040517f08c379a000000000000000000000000000000000000000000000000000000000815260040161034e906109b6565b60405180910390fd5b60008054906101000a900473ffffffffffffffffffffffffffffffffffffffff1673ffffffffffffffffffffffffffffffffffffffff1663a9059cbb33836040518363ffffffff1660e01b81526004016103b2929190610930565b6020604051808303816000875af11580156103d1573d6000803e3d6000fd5b505050506040513d601f19601f820116820180604052508101906103f59190610a0e565b50600260003373ffffffffffffffffffffffffffffffffffffffff1673ffffffffffffffffffffffffffffffffffffffff16815260200190815260200160002060008082016000905560018201600090556002820160009055505050565b670de0b6b3a764000081565b600081116104a2576040517f08c379a000000000000000000000000000000000000000000000000000000000815260040161049990610a87565b60405180910390fd5b6104aa61018e565b60008054906101000a900473ffffffffffffffffffffffffffffffffffffffff1673ffffffffffffffffffffffffffffffffffffffff166323b872dd3330846040518463ffffffff1660e01b815260040161050793929190610aa7565b6020604051808303816000875af1158015610526573d6000803e3d6000fd5b505050506040513d601f19601f8201168201806040525081019061054a9190610a0e565b5080600260003373ffffffffffffffffffffffffffffffffffffffff1673ffffffffffffffffffffffffffffffffffffffff168152602001908152602001600020600001600082825461059d9190610ade565b9250508190555042600260003373ffffffffffffffffffffffffffffffffffffffff1673ffffffffffffffffffffffffffffffffffffffff1681526020019081526020016000206001018190555050565b60008054906101000a900473ffffffffffffffffffffffffffffffffffffffff1681565b600073ffffffffffffffffffffffffffffffffffffffff82169050919050565b6000819050919050565b600061065761065261064d84610612565b610632565b610612565b9050919050565b60006106698261063c565b9050919050565b600061067b8261065e565b9050919050565b61068b81610670565b82525050565b60006020820190506106a66000830184610682565b92915050565b600080fd5b60006106bc82610612565b9050919050565b6106cc816106b1565b81146106d757600080fd5b50565b6000813590506106e9816106c3565b92915050565b600060208284031215610705576107046106ac565b5b6000610713848285016106da565b91505092915050565b6000819050919050565b61072f8161071c565b82525050565b600060608201905061074a6000830186610726565b6107576020830185610726565b6107646040830184610726565b949350505050565b60006020820190506107816000830184610726565b92915050565b6107908161071c565b811461079b57600080fd5b50565b6000813590506107ad81610787565b92915050565b6000602082840312156107c9576107c86106ac565b5b60006107d78482850161079e565b91505092915050565b60006107eb8261065e565b9050919050565b6107fb816107e0565b82525050565b600060208201905061081660008301846107f2565b92915050565b7f4e487b7100000000000000000000000000000000000000000000000000000000600052601160045260246000fd5b60006108568261071c565b91506108618361071c565b92508282039050818111156108795761087861081c565b5b92915050565b600061088a8261071c565b91506108958361071c565b92508282026108a38161071c565b915082820484148315176108ba576108b961081c565b5b5092915050565b7f4e487b7100000000000000000000000000000000000000000000000000000000600052601260045260246000fd5b60006108fb8261071c565b91506109068361071c565b925082610916576109156108c1565b5b828204905092915050565b61092a816106b1565b82525050565b60006040820190506109456000830185610921565b6109526020830184610726565b9392505050565b600082825260208201905092915050565b7f4e6f7468696e6720746f20756e7374616b650000000000000000000000000000600082015250565b60006109a0601283610959565b91506109ab8261096a565b602082019050919050565b600060208201905081810360008301526109cf81610993565b9050919050565b60008115159050919050565b6109eb816109d6565b81146109f657600080fd5b50565b600081519050610a08816109e2565b92915050565b600060208284031215610a2457610a236106ac565b5b6000610a32848285016109f9565b91505092915050565b7f43616e6e6f74207374616b652030000000000000000000000000000000000000600082015250565b6000610a71600e83610959565b9150610a7c82610a3b565b602082019050919050565b60006020820190508181036000830152610aa081610a64565b9050919050565b6000606082019050610abc6000830186610921565b610ac96020830185610921565b610ad66040830184610726565b949350505050565b6000610ae98261071c565b9150610af48361071c565b9250828201905080821115610b0c57610b0b61081c565b5b9291505056fea2646970667358221220444cd5563385aa43fabbb7bb1da25bf9fe0765204a370b3e11446d78728560b064736f6c634300081c0033",
  "linkReferences": {},
  "deployedLinkReferences": {}
}