{
  "_format": "hh-sol-artifact-1",
  "contractName": "DAO",
  "sourceName": "contracts/DAO.sol",
  "abi": [
    {
      "inputs": [
        {
          "internalType": "address",
          "name": "_govToken",
          "type": "address"
        }
      ],
      "stateMutability": "nonpayable",
      "type": "constructor"
    },
    {
      "inputs": [
        {
          "internalType": "string",
          "name": "description",
          "type": "string"
        },
        {
          "internalType": "uint256",
          "name": "duration",
          "type": "uint256"
        }
      ],
      "name": "createProposal",
      "outputs": [],
      "stateMutability": "nonpayable",
      "type": "function"
    },
    {
      "inputs": [
        {
          "internalType": "uint256",
          "name": "id",
          "type": "uint256"
        }
      ],
      "name": "getProposalStatus",
      "outputs": [
        {
          "internalType": "string",
          "name": "",
          "type": "string"
        }
      ],
      "stateMutability": "view",
      "type": "function"
    },
    {
      "inputs": [],
      "name": "govToken",
      "outputs": [
        {
          "internalType": "contract IERC20Balance",
          "name": "",
          "type": "address"
        }
      ],
      "stateMutability": "view",
      "type": "function"
    },
    {
      "inputs": [
        {
          "internalType": "uint256",
          "name": "",
          "type": "uint256"
        }
      ],
      "name": "proposals",
      "outputs": [
        {
          "internalType": "string",
          "name": "description",
          "type": "string"
        },
        {
          "internalType": "uint256",
          "name": "yesVotes",
          "type": "uint256"
        },
        {
          "internalType": "uint256",
          "name": "noVotes",
          "type": "uint256"
        },
        {
          "internalType": "uint256",
          "name": "deadline",
          "type": "uint256"
        },
        {
          "internalType": "bool",
          "name": "executed",
          "type": "bool"
        }
      ],
      "stateMutability": "view",
      "type": "function"
    },
    {
      "inputs": [
        {
          "internalType": "uint256",
          "name": "id",
          "type": "uint256"
        },
        {
          "internalType": "bool",
          "name": "support",
          "type": "bool"
        }
      ],
      "name": "vote",
      "outputs": [],
      "stateMutability": "nonpayable",
      "type": "function"
    },
    {
      "inputs": [
        {
          "internalType": "uint256",
          "name": "",
          "type": "uint256"
        },
        {
          "internalType": "address",
          "name": "",
          "type": "address"
        }
      ],
      "name": "voted",
      "outputs": [
        {
          "internalType": "bool",
          "name": "",
          "type": "bool"
        }
      ],
      "stateMutability": "view",
      "type": "function"
    }
  ],
  "bytecode": "0x608060405234801561001057600080fd5b50604051611288380380611288833981810160405281019061003291906100db565b806000806101000a81548173ffffffffffffffffffffffffffffffffffffffff021916908373ffffffffffffffffffffffffffffffffffffffff16021790555050610108565b600080fd5b600073ffffffffffffffffffffffffffffffffffffffff82169050919050565b60006100a88261007d565b9050919050565b6100b88161009d565b81146100c357600080fd5b50565b6000815190506100d5816100af565b92915050565b6000602082840312156100f1576100f0610078565b5b60006100ff848285016100c6565b91505092915050565b611171806101176000396000f3fe608060405234801561001057600080fd5b50600436106100625760003560e01c8063013cf08b1461006757806305268cff1461009b57806335facf78146100b9578063401853b7146100d55780635277b4ae14610105578063c9d27afe14610135575b600080fd5b610081600480360381019061007c919061082f565b610151565b604051610092959493929190610916565b60405180910390f35b6100a361022c565b6040516100b091906109ef565b60405180910390f35b6100d360048036038101906100ce9190610a6f565b610250565b005b6100ef60048036038101906100ea919061082f565b610351565b6040516100fc9190610acf565b60405180910390f35b61011f600480360381019061011a9190610b2f565b610523565b60405161012c9190610b6f565b60405180910390f35b61014f600480360381019061014a9190610bb6565b610552565b005b6001818154811061016157600080fd5b906000526020600020906005020160009150905080600001805461018490610c25565b80601f01602080910402602001604051908101604052809291908181526020018280546101b090610c25565b80156101fd5780601f106101d2576101008083540402835291602001916101fd565b820191906000526020600020905b8154815290600101906020018083116101e057829003601f168201915b5050505050908060010154908060020154908060030154908060040160009054906101000a900460ff16905085565b60008054906101000a900473ffffffffffffffffffffffffffffffffffffffff1681565b60016040518060a0016040528085858080601f016020809104026020016040519081016040528093929190818152602001838380828437600081840152601f19601f820116905080830192505050505050508152602001600081526020016000815260200183426102c19190610c85565b8152602001600015158152509080600181540180825580915050600190039060005260206000209060050201600090919091909150600082015181600001908161030b9190610e8a565b5060208201518160010155604082015181600201556060820151816003015560808201518160040160006101000a81548160ff0219169083151502179055505050505050565b606060006001838154811061036957610368610f5c565b5b90600052602060002090600502016040518060a001604052908160008201805461039290610c25565b80601f01602080910402602001604051908101604052809291908181526020018280546103be90610c25565b801561040b5780601f106103e05761010080835404028352916020019161040b565b820191906000526020600020905b8154815290600101906020018083116103ee57829003601f168201915b505050505081526020016001820154815260200160028201548152602001600382015481526020016004820160009054906101000a900460ff16151515158152505090508060600151421015610499576040518060400160405280601281526020017f566f74696e6720696e2070726f6772657373000000000000000000000000000081525091505061051e565b80604001518160200151116104e3576040518060400160405280600681526020017f4661696c6564000000000000000000000000000000000000000000000000000081525061051a565b6040518060400160405280600681526020017f50617373656400000000000000000000000000000000000000000000000000008152505b9150505b919050565b60026020528160005260406000206020528060005260406000206000915091509054906101000a900460ff1681565b60006001838154811061056857610567610f5c565b5b90600052602060002090600502019050806003015442106105be576040517f08c379a00000000000000000000000000000000000000000000000000000000081526004016105b590610fd7565b60405180910390fd5b6002600084815260200190815260200160002060003373ffffffffffffffffffffffffffffffffffffffff1673ffffffffffffffffffffffffffffffffffffffff16815260200190815260200160002060009054906101000a900460ff161561065c576040517f08c379a000000000000000000000000000000000000000000000000000000000815260040161065390611043565b60405180910390fd5b60016002600085815260200190815260200160002060003373ffffffffffffffffffffffffffffffffffffffff1673ffffffffffffffffffffffffffffffffffffffff16815260200190815260200160002060006101000a81548160ff02191690831515021790555060008060009054906101000a900473ffffffffffffffffffffffffffffffffffffffff1673ffffffffffffffffffffffffffffffffffffffff166370a08231336040518263ffffffff1660e01b81526004016107219190611072565b602060405180830381865afa15801561073e573d6000803e3d6000fd5b505050506040513d601f19601f8201168201806040525081019061076291906110a2565b9050600081116107a7576040517f08c379a000000000000000000000000000000000000000000000000000000000815260040161079e9061111b565b60405180910390fd5b82156107cd57808260010160008282546107c19190610c85565b925050819055506107e9565b808260020160008282546107e19190610c85565b925050819055505b50505050565b600080fd5b600080fd5b6000819050919050565b61080c816107f9565b811461081757600080fd5b50565b60008135905061082981610803565b92915050565b600060208284031215610845576108446107ef565b5b60006108538482850161081a565b91505092915050565b600081519050919050565b600082825260208201905092915050565b60005b8381101561089657808201518184015260208101905061087b565b60008484015250505050565b6000601f19601f8301169050919050565b60006108be8261085c565b6108c88185610867565b93506108d8818560208601610878565b6108e1816108a2565b840191505092915050565b6108f5816107f9565b82525050565b60008115159050919050565b610910816108fb565b82525050565b600060a082019050818103600083015261093081886108b3565b905061093f60208301876108ec565b61094c60408301866108ec565b61095960608301856108ec565b6109666080830184610907565b9695505050505050565b600073ffffffffffffffffffffffffffffffffffffffff82169050919050565b6000819050919050565b60006109b56109b06109ab84610970565b610990565b610970565b9050919050565b60006109c78261099a565b9050919050565b60006109d9826109bc565b9050919050565b6109e9816109ce565b82525050565b6000602082019050610a0460008301846109e0565b92915050565b600080fd5b600080fd5b600080fd5b60008083601f840112610a2f57610a2e610a0a565b5b8235905067ffffffffffffffff811115610a4c57610a4b610a0f565b5b602083019150836001820283011115610a6857610a67610a14565b5b9250929050565b600080600060408486031215610a8857610a876107ef565b5b600084013567ffffffffffffffff811115610aa657610aa56107f4565b5b610ab286828701610a19565b93509350506020610ac58682870161081a565b9150509250925092565b60006020820190508181036000830152610ae981846108b3565b905092915050565b6000610afc82610970565b9050919050565b610b0c81610af1565b8114610b1757600080fd5b50565b600081359050610b2981610b03565b92915050565b60008060408385031215610b4657610b456107ef565b5b6000610b548582860161081a565b9250506020610b6585828601610b1a565b9150509250929050565b6000602082019050610b846000830184610907565b92915050565b610b93816108fb565b8114610b9e57600080fd5b50565b600081359050610bb081610b8a565b92915050565b60008060408385031215610bcd57610bcc6107ef565b5b6000610bdb8582860161081a565b9250506020610bec85828601610ba1565b9150509250929050565b7f4e487b7100000000000000000000000000000000000000000000000000000000600052602260045260246000fd5b60006002820490506001821680610c3d57607f821691505b602082108103610c5057610c4f610bf6565b5b50919050565b7f4e487b7100000000000000000000000000000000000000000000000000000000600052601160045260246000fd5b6000610c90826107f9565b9150610c9b836107f9565b9250828201905080821115610cb357610cb2610c56565b5b92915050565b7f4e487b7100000000000000000000000000000000000000000000000000000000600052604160045260246000fd5b60008190508160005260206000209050919050565b60006020601f8301049050919050565b600082821b905092915050565b600060088302610d4a7fffffffffffffffffffffffffffffffffffffffffffffffffffffffffffffffff82610d0d565b610d548683610d0d565b95508019841693508086168417925050509392505050565b6000610d87610d82610d7d846107f9565b610990565b6107f9565b9050919050565b6000819050919050565b610da183610d6c565b610db5610dad82610d8e565b848454610d1a565b825550505050565b600090565b610dca610dbd565b610dd5818484610d98565b505050565b5b81811015610df957610dee600082610dc2565b600181019050610ddb565b5050565b601f821115610e3e57610e0f81610ce8565b610e1884610cfd565b81016020851015610e27578190505b610e3b610e3385610cfd565b830182610dda565b50505b505050565b600082821c905092915050565b6000610e6160001984600802610e43565b1980831691505092915050565b6000610e7a8383610e50565b9150826002028217905092915050565b610e938261085c565b67ffffffffffffffff811115610eac57610eab610cb9565b5b610eb68254610c25565b610ec1828285610dfd565b600060209050601f831160018114610ef45760008415610ee2578287015190505b610eec8582610e6e565b865550610f54565b601f198416610f0286610ce8565b60005b82811015610f2a57848901518255600182019150602085019450602081019050610f05565b86831015610f475784890151610f43601f891682610e50565b8355505b6001600288020188555050505b505050505050565b7f4e487b7100000000000000000000000000000000000000000000000000000000600052603260045260246000fd5b7f566f74696e6720656e6465640000000000000000000000000000000000000000600082015250565b6000610fc1600c83610867565b9150610fcc82610f8b565b602082019050919050565b60006020820190508181036000830152610ff081610fb4565b9050919050565b7f416c726561647920766f74656400000000000000000000000000000000000000600082015250565b600061102d600d83610867565b915061103882610ff7565b602082019050919050565b6000602082019050818103600083015261105c81611020565b9050919050565b61106c81610af1565b82525050565b60006020820190506110876000830184611063565b92915050565b60008151905061109c81610803565b92915050565b6000602082840312156110b8576110b76107ef565b5b60006110c68482850161108d565b91505092915050565b7f4e6f20766f74696e6720706f7765720000000000000000000000000000000000600082015250565b6000611105600f83610867565b9150611110826110cf565b602082019050919050565b60006020820190508181036000830152611134816110f8565b905091905056fea2646970667358221220b44f24ce2b36e57a136207f545b72117bca67589be624cae3d25f5214e9626a564736f6c634300081c0033",
  "linkReferences": {},
  "deployedLinkReferences": {}
}